:020000040800F2
:10000000F819002099010008AF0C0008330C000813
:10001000AD0C000829020008630E00080000000073
:1000200000000000000000000000000001010008C6
:100030002B0200080000000045010008B10C000878
:10004000B3010008B3010008B3010008B3010008C0
:10005000B3010008B3010008B3010008B3010008B0
:10006000B3010008B3010008B3010008B3010008A0
:10007000B3010008B3010008B3010008B301000890
:10008000B3010008B3010008B3010008B301000880
:10009000B3010008B3010008B3010008B301000870
:1000A000B3010008750D0008B3010008B301000892
:1000B000810D0008B3010008B3010008B301000876
:1000C000B3010008B3010008B3010008B301000840
:1000D000B3010008B3010008B3010008B301000830
:1000E000B3010008B3010008B3010008DFF80CD029
:1000F00000F088F800480047E90E0008F8190020D1
:10010000224B19680868B0E8F00F80F30988BFF344
:100110006F8F4FF0000080F311884EF00D0E704786
:100120000000000006480068006880F3088862B696
:1001300061B6BFF34F8FBFF36F8F00DF00BF00BF0B
:1001400008ED00E0EFF30980BFF36F8F0F4B1A68E3
:1001500020E9F00F106008B54FF0500080F31188CF
:10016000BFF34F8FBFF36F8F01F092FD4FF0000090
:1001700080F31188BDE8084019680868B0E8F00FFE
:1001800080F30988BFF36F8F704700BF1400002011
:10019000EFF3058070470000064880470648004797
:1001A000FEE7FEE7FEE7FEE7FEE7FEE7FEE7FEE727
:1001B000FEE7FEE72D0D0008ED00000840EA010310
:1001C0009B0703D009E008C9121F08C0042AFAD20D
:1001D00003E011F8013B00F8013B521EF9D27047D1
:1001E000D2B201E000F8012B491EFBD27047002279
:1001F000F6E710B513460A4604461946FFF7F0FF26
:10020000204610BD064C074D06E0E06840F00103B3
:1002100094E8070098471034AC42F6D3FFF76AFF22
:100220009C260008BC260008FEE77047014880684D
:1002300070470000040000200248816802781144E1
:100240008160704704000020074810B5016841F044
:1002500010010160032000F095F8002000F006F87E
:1002600000F03EF8002010BD0020024000B501461D
:1002700087B00022192000F065F8192000F054F82A
:100280001348816941F400618161806905A900F426
:1002900000600690684600F01DF900F03BF90D493A
:1002A0000D4AB0FBF1F10D48491E0260416040F279
:1002B000E7320021C0E90321816000F024FB10B186
:1002C000012007B000BD054800F054FBF9E700002D
:1002D0000010024040420F00002C01407407002033
:1002E0000F4808B5816941F001018161816901F020
:1002F00001010091C16941F08051C161C0690022D2
:1003000000F0805000900F21901E00F01BF805486F
:10031000416821F0E06141F00071416008BD0000DA
:100320000010024000000140002809DB00F01F021D
:10033000012191404009800000F1E020C0F8001147
:1003400070470000F0B40E4B1B680C46C3F3022349
:10035000C3F10705042D00D90425191D072901D271
:10036000002300E0DB1E012606FA05F1491E2140AC
:1003700099409E40761E16403143F0BC00F07ABD95
:100380000CED00E0064900F0070208684FF6FF0395
:10039000184040EA0220034A1043086070470000FA
:1003A0000CED00E00000FA052DE9F0470F460500CE
:1003B00061D0434E306800F00700B84209D230687F
:1003C00020F0070038433060306800F00700B84282
:1003D00051D128683B4C810712D5400703D560688E
:1003E00040F4E06060602878000703D5606840F45E
:1003F000605060606068A96820F0F00008436060A9
:100400002878C00728D06868012810D02168022801
:1004100010D0890700292EDA616821F00301014319
:100420006160FFF703FF804641F288390DE02168E3
:100430008903EFE78901EDE7FFF7F8FEA0EB08017C
:10044000494502D90320BDE8F0876068696800F07B
:100450000C00B0EB810FEFD1306800F00700B8421C
:100460000BD9306820F0070038433060306800F066
:100470000700B84201D00120E5E72878400705D5FC
:100480006068E96820F4E06008436060287800074D
:1004900006D56068296920F4605040EAC1006060B8
:1004A00000F048F86168084AC1F30311515CC84084
:1004B0000649086006480068FFF7D8FE0020C2E73A
:1004C0000020024000100240842600081000002096
:1004D000080000200F2202600C4A536803F0030357
:1004E0004360536803F0F0038360536803F4E063F0
:1004F000C36052684FF4E06303EAD2020261044829
:10050000006800F00700086070470000001002401B
:10051000002002400448054900684968044AC1F3C4
:10052000C221515CC84070471000002000100240FA
:100530009426000812A185B00FC98DE80F0014A001
:10054000144A006804905168134801F00C03042B0E
:1005500010D0082B0ED1C1F38343C9031DF803004B
:100560000AD5516804AAC1F34041515C0A4A50437C
:10057000B0FBF1F005B0704708494843FAE70000C6
:1005800002030405060708090A0B0C0D0E0F1010D4
:10059000010200000010024000127A0000093D0034
:1005A0002DE9F84F040070D02078C04DC00749D025
:1005B0006868C0F38100012807D06868C0F3810033
:1005C000022809D16868C00306D52868800339D598
:1005D00060680028E7D035E06068B0F5803F0BD058
:1005E00010B1B0F5A02F11D0286820F48030286019
:1005F000286820F4802002E0286840F480302860D9
:10060000606890B1FFF712FE06460AE0286840F4E1
:1006100080202860F0E700BFFFF708FE801B6428F9
:1006200073D828688003F7D50CE0FFF7FFFD064676
:1006300005E000BFFFF7FAFD801B6428F0D82868AA
:100640008003F7D420789A4E80074FF001094FF0CD
:10065000000839D5686810F00C0F07D06868C0F33F
:100660008100022809D16868C00306D42868800781
:1006700014D52069012808D110E02069B0B1C6F86E
:100680000090FFF7D3FD074605E00AE1FFF7CEFD36
:10069000C01B0228C4D828688007F7D5286861697C
:1006A00020F0F80040EAC10028600DE0C6F80080A4
:1006B000FFF7BCFD074604E0FFF7B8FDC01B0228AA
:1006C00023D828688007F7D4207800072CD57948EC
:1006D000A169D9B1C0F80090FFF7A8FD074604E072
:1006E000FFF7A4FDC01B02280FD8686A8007F7D562
:1006F00071484FF4FA510068B0FBF1F0009000BF70
:100700000098411E0091FAD20EE080E0C0F800800F
:10071000FFF78CFD074604E0FFF788FDC01B0228A9
:1007200075D8686A8007F7D42078400760D5E869F3
:100730000027C00008D4E86940F08050E861E8690B
:10074000012700F0805000905C480168C90513D46F
:100750000168834641F480710160FFF767FD8246BE
:1007600006E000BFFFF762FDA0EB0A0064284ED848
:10077000DBF80000C005F5D5E06801280AD008B113
:10078000052813D0286A20F001002862286A20F08A
:10079000040002E0286A40F001002862E06841F2AB
:1007A000883B98B1FFF742FD82460BE0286A40F093
:1007B00004002862EEE700BFFFF738FDA0EB0A0156
:1007C00059455AD8286A8007F6D50CE0FFF72EFD68
:1007D000824605E0FFF72AFDA0EB0A0159454CD8F7
:1007E000286A8007F6D41FB1E86920F08050E861DC
:1007F000E06988B36968C1F38101022944D0022805
:10080000C6F8608004D0FFF711FD044638E034E0FC
:10081000FFF70CFD074604E0FFF708FDC01B0228A8
:100820002BD828688001F7D4206AB0F5803F05D125
:100830006868A16820F4003008436860D4E90801C2
:100840000843696821F4741108436860C6F8609031
:10085000FFF7ECFC044606E025E000BFFFF7E6FCEE
:10086000001B022809D828688001F7D51BE000BFCB
:10087000FFF7DCFC001B022802D90320BDE8F88F3B
:1008800028688001F4D40EE00128F7D06868226A55
:1008900000F48031914204D1616A00F47010884202
:1008A00001D00120EAE70020E8E700000010024044
:1008B00000004242800442421000002000700040CC
:1008C0007047704770B590F83C20012A19D0012478
:1008D00000F83C4F0222427050F83C3C5A689D6838
:1008E00022F070060A684968324325F080052943E2
:1008F0005A6050F83C2C9160447000210170084609
:1009000070BD022070BD10B5040003D094F83D0006
:1009100010B107E0012010BD002084F83C00204603
:1009200000F00CF8022084F83D00211D206800F042
:100930002DFA012084F83D00002010BD08B50068A4
:10094000B0F1804F12D10A48C16941F00101C16183
:10095000C069002200F00100009005211C20FFF773
:10096000F1FCBDE808401C20FFF7DEBC08BD00001C
:10097000001002400168CA6842F00102CA600068C3
:10098000816801F00701062903D0016841F00101E7
:1009900001600020704770B5044690F83C000128C3
:1009A00017D0012584F83C50022084F83D002068CF
:1009B000826822F0770222F47F4282600868502821
:1009C00030D00DDC20284DD005DC98B310283BD169
:1009D00048E0022070BD302844D0402834D139E0AE
:1009E000602828D0702806D0B0F5805F2CD0B0F5F4
:1009F000005F29D10AE0CB68D1E90121206800F02D
:100A0000FBF92068816841F0770109E0CB68D1E902
:100A10000121206800F0F0F92068816841F48041EC
:100A2000816011E0CA684968206800F0F7F9502138
:100A3000206807E016E0CA684968206800F0FFF9FE
:100A40006021206800F0E2F984F83D50002084F82D
:100A50003C0070BDCA684968206800F0DFF9402199
:100A60002068EFE7226801461046EBE7704770B553
:100A70000446006801694FF00005C943890715D491
:100A8000C168C943890711D4E91E0161012020779B
:100A9000206880698007204602D0FFF7E7FF04E066
:100AA00000F098F8204600F096F825772068016954
:100AB000C943490717D4C168C943490713D46FF024
:100AC00004010161022020772068806910F4407FD2
:100AD000204602D0FFF7CAFF04E000F07BF8204672
:100AE00000F079F8257720680169C943090716D411
:100AF000C168C943090712D46FF0080101610420DD
:100B000020772068C0698007204602D0FFF7AEFF3B
:100B100004E000F05FF8204600F05DF825772068DB
:100B20000169C943C90617D4C168C943C90613D4AA
:100B30006FF010010161082020772068C06910F46F
:100B4000407F204602D0FFF791FF04E000F042F81A
:100B5000204600F040F8257720680169C943C9079D
:100B600008D1C168C943C90704D1891E0161204663
:100B700000F032F820680169C943090609D4C16848
:100B8000C943090605D46FF0800101612046FFF7D3
:100B900097FE20680169C943490609D4C168C94361
:100BA000490605D46FF040010161204600F040F88D
:100BB00020680169C94389060BD4C168C943890605
:100BC00007D46FF0200101612046BDE87040FFF7B7
:100BD00078BE70BD7047704708B500680F498842FD
:100BE00003D1BDE80840FFF727BBB0F1804F13D118
:100BF000002000900A486946006800F06DFF0098E8
:100C000038B108494FF080500860BFF34F8FBFF3F1
:100C10006F8F05A000F026F908BD0000002C0140F0
:100C20000000002004ED00E054696D320A0000006D
:100C30007047FEE707490968C9070AD005498039A6
:100C40000968C90705D04FF060410A68002AFCD046
:100C500008707047800E00E010B586B0002412487E
:100C6000009401940294039404944FF080410594FD
:100C7000016048F69F41C0E901144FF4FA61C0E9F0
:100C800003148461FFF73FFE4FF4805000906946E3
:100C90000548FFF780FE049404A903480594FFF774
:100CA00011FE06B010BD00008C000020FEE770476A
:100CB00010B5502080F31188BFF34F8FBFF36F8FB3
:100CC00001F030FB18B104494FF08050086000205B
:100CD00080F3118810BD000004ED00E030B58FB046
:100CE00028216846FFF783FA14210AA8FFF77FFA44
:100CF00001210804CDE9001000240294022504918A
:100D0000CDE907504FF4E01009906846FFF748FC22
:100D10000F20CDE90A056802CDE90C4002210AA89E
:100D20000E94FFF741FB0FB030BD00000D48016885
:100D300041F00101016041680B4A114041600168C6
:100D40000A4A11400160016821F480210160416874
:100D500021F4FE0141604FF41F0181600449C0038A
:100D600008607047001002400000FFF8FFFFF6FE29
:100D700008ED00E00148FFF77ABE0000740700208C
:100D80000148FFF774BE00008C000020F0B5026837
:100D9000164B174C174D4FF08047984205D0B8427C
:100DA00003D0A04201D0A84203D122F070064A68C5
:100DB0003243984205D0B84203D0A04201D0A842A5
:100DC00003D122F44074CA6822434C6922F08002A5
:100DD000224302608A68C2620A688262984201D134
:100DE0000969016301214161F0BD0000002C01404F
:100DF000000400400008004010B5846842EA032265
:100E000024F47F440A432243826010BD826822F0AA
:100E100070020A4342F007018160704710B5036A0F
:100E2000046A24F001040462846924F0F00444EAB2
:100E3000021423F00A020A438461026210BD10B555
:100E4000036A23F0100303628369046A23F4704386
:100E500043EA023224F0A00343EA011182610162F5
:100E600010BDFEE7014A024900F023B8D50E000884
:100E7000880000200907090E002804DB00F1E020AB
:100E800080F80014704700F00F0000F1E02080F8B7
:100E9000141D704702E008C8121F08C1002AFAD1C9
:100EA00070477047002001E001C1121F002AFBD1EA
:100EB00070472DE9F04116460F460446002503E031
:100EC0003946B047641C6D1C20780028F8D12846AC
:100ED000BDE8F081034A914201D1FFF7ABBE4FF06C
:100EE000FF307047880000201CB5FFF7ADF9FFF711
:100EF000F5FE1848816941F020018161816901F0A6
:100F000020010091816941F004018161816901F052
:100F100004010091816941F008018161806900F05C
:100F200008000090FFF798FE0B496FF00100096878
:100F300008610948FFF71EFD08490120CDE90001BD
:100F40000023642206A1084801F080F900F054FE55
:100F5000FEE70000001002408C000020000000208E
:100F60005461736B20310000611800082DE9F041D5
:100F7000184C0F46054666692068001D00F046FCC7
:100F800038B9206890F82C1001208840A16981436D
:100F9000A161681C07D137B12168BDE8F0410E4856
:100FA000091D00F0ABBC20683544B542456021689E
:100FB00005D2A068BDE8F041091D00F087BC60685B
:100FC000091D00F083FC206B854200D22563BDE83B
:100FD000F081000014000020D00800202DE9F0412D
:100FE000054600F097FC2E4C2069401C20612068CB
:100FF0002C4F10B1E06940B32DE025602069012835
:1010000029D1002606EB860007EB800000F050FC9B
:10101000761C072EF6D323488C3000F049FC21487B
:10102000A03000F045FC1F48B43000F041FC1D48E2
:10103000C83000F03DFC1B48DC3000F039FC19489A
:101040008C3060601430A06005E02068E96AC06AF6
:10105000884200D82560E06A401CE062E96A01200D
:10106000A26988401043A06101EB810007EB80007A
:10107000291D00F043FC00F06DFCE06900280CD055
:101080002068E96AC06A884207D207494FF0805059
:101090000860BFF34F8FBFF36F8FBDE8F081000092
:1010A00014000020F407002004ED00E038B500F043
:1010B00031FC104CA068C8B90F4800F0F9FB0E488D
:1010C000143000F0F5FB0C482060143060600A4BCF
:1010D00000202833009003F1480210210A2000F07C
:1010E00059FEA06010B105A100F0B2FCBDE8384087
:1010F00000F030BC50000020E4080020546D725114
:101100000000000030B4026C0B46002A0BD0C1680E
:101110001144C1604468A14201D30168C16030BC80
:101120001846FFF74BB830BC70472DE9F041856B8E
:10113000174604460026026C82B1C7B1E068FFF78B
:101140003DF8E168206C091AE1602268914202D200
:101150006168081AE060022F16D017E02068A8B96D
:10116000606801F043F90646002060600EE0A06868
:10117000FFF724F8216CA0680844A06061688842E9
:1011800004D32068A06001E005B16D1E6D1CA5634D
:101190003046BDE8F08110B5044690F8510058B1D2
:1011A00001280CD002280FD0502080F31188BFF303
:1011B0004F8FBFF36F8FFEE7206B00F0DFFB204601
:1011C000BDE8104000F0DABB10BD000010484FF43D
:1011D0004061420706D0C01D0D4920F00700411AAA
:1011E000C1F540610B4A00230144C2E900030839FC
:1011F000103A21F0070111604B600B600B1AC0E937
:10120000001393604FF000405360D06070470000BF
:10121000F409002074000020144E154CA6F1C807F4
:101220004FF08058DFF84C9012E000BF00F072FBE6
:10123000F068C568281D00F0E9FA2069401E2061A9
:10124000E068401EE06000F085FB2846FFF7A3FF42
:10125000E0680028EAD138680128F9D9C9F8008087
:10126000BFF34F8FBFF36F8FF2E70000BC08002081
:101270001400002004ED00E00346009829B102604C
:10128000C0E90F31012100F0B9BD0060F8E72DE998
:10129000F0479A46DDE9098481466FF00303206B2D
:1012A00003EB82021044089D20F00706700707D068
:1012B000502080F31188BFF34F8FBFF36F8FFEE78D
:1012C00023180A5C83F834200A5C12B1401C1028F1
:1012D000F6D3002784F84370072D00D30625E56276
:1012E000C4E91157201D00F0EEFA04F1180000F0D7
:1012F000EAFA2461C5F107006462A061E76484F83A
:10130000507052464946304600F03AFA2060B8F133
:10131000000F01D0C8F80040BDE8F08730B5114992
:1013200000E011460A688242FBD34B685C18844295
:1013300003D1406818444860084643681C1894422A
:1013400009D1084C103C2468A24209D052681A44C2
:1013500042600A6812680260814200D0086030BDB5
:101360000460F9E77400002070B5002441600B4D63
:101370000061914206D8D11A8269914206D2011DBC
:10138000686807E09A4203D2994201D3012403E03E
:10139000011D286800F09AFA204670BD5000002018
:1013A00010B5044600F0B6FAA06B28B15FF0000457
:1013B00000F0D0FA204610BD0124F9E730B589B01D
:1013C000304D55E00498002806DADDE90601059A5B
:1013D0009047049800284BDB069C606910B1201DE3
:1013E00000F014FA02A800F0B9F8024604980A289E
:1013F0003ED2DFE800F00505053D263705053D2610
:101400000598A169034601442046FFF7ADFF00B3EC
:10141000616A20468847E069012829D100200090B0
:101420000598A169002342181946204601F0F6F8F4
:1014300078B9502080F31188BFF34F8FBFF36F8FBF
:10144000FEE70598A06128B1811813462046FFF7F2
:101450008BFF0DE0502080F31188BFF34F8FBFF357
:101460006F8FFEE794F8280010B9204600F086FA46
:10147000002204A9A86800F013FE0028A2D109B038
:1014800030BD0000500000202DE9FC410F4605460C
:1014900000F0F6FB01A800F061F80446019818B1CD
:1014A00001F02AF8BDE8FC81224EAFB170680068F7
:1014B000A8B30027291B3A46B06800F0DDFA01F016
:1014C0001BF80028EED11C494FF080500860BFF394
:1014D0004F8FBFF36F8FE5E7A542EBD801F00CF813
:1014E00030682746C068C468201D00F08FF9E069A5
:1014F000012810D1A0692B4641193A462046FFF732
:1015000033FF40B100200346014600902A462046A2
:1015100001F084F820B1616A20468847C2E707E0FD
:10152000502080F31188BFF34F8FBFF36F8FFEE71A
:101530000127BFE75000002004ED00E006484168A5
:10154000096829B14168C968C96849680163704779
:101550004FF0FF31FAE700001400002070B5054697
:1015600000F0DAFE064E04463069844203D200F0F1
:1015700009F8012000E0002028602046346170BD99
:1015800050000020F8B5194D1FE0C068C468066817
:10159000201D00F03BF9616A20468847E069012878
:1015A00013D1A0693044B04206D924616060211D86
:1015B000286800F08BF908E00020034601460090FF
:1015C0003246204601F02AF838B12868016800291F
:1015D000DBD16968C5E90010F8BD502080F311889F
:1015E000BFF34F8FBFF36F8FFEE700005000002066
:1015F00008484068401C4FF0500080F3118804D028
:10160000BFF34F8FBFF36F8FFEE7BFF34F8FBFF373
:101610006F8FFEE77C000020074C2068016841B115
:10162000C0680021D0F80000FFF72EFFFFF7C6FECC
:10163000F3E701210020F7E7500000202DE9F041F9
:10164000044600F067F994F9455004F1240609E0D6
:10165000606A48B1304600F015FF08B100F036FA74
:101660006D1E6DB2002DF3DC4FF0FF3684F845603F
:1016700000F070F900F04EF994F9445004F11007AD
:1016800009E0206948B1384600F0FCFE08B100F0DE
:101690001DFA6D1E6DB2002DF3DC84F84460BDE8C8
:1016A000F04100F057B900002DE9F0410546002750
:1016B00000F0E6FA314E306808B9FFF787FDF068B0
:1016C00005424BD1C5B3083568070ED005F00700B9
:1016D000C0F108000544680707D0502080F3118846
:1016E000BFF34F8FBFF36F8FFEE72DB37068854256
:1016F00034D82248103001460C6801E020460C46E0
:101700006168A94202D221680029F7D131688C4270
:1017100024D007682168016060680837411B1029E0
:101720000FD96019420708D0502080F31188BFF309
:101730004F8FBFF36F8FFEE710E041606560FFF7EA
:10174000EDFD61687068401A7060B268904200D226
:10175000B060F06801430020C4E9000100F0CCFE55
:10176000780707D0502080F31188BFF34F8FBFF365
:101770006F8FFEE73846BDE8F0810000640000206E
:1017800010B5031F4FF080741C601B1F21F0010176
:101790001960191F024B0B60143940380A6010BDE4
:1017A000F115000870B50C46064600F0B3F8154D6B
:1017B0002868C06C80B92968012081F850005CB1AC
:1017C00001212046FFF7D2FB0F494FF080500860FF
:1017D000BFF34F8FBFF36F8F00F0BCF800F09AF8A3
:1017E0002868C46C002034B116B12968C86402E0CE
:1017F0002A68611ED164296881F8500000F0AAF8B7
:10180000204670BD1400002004ED00E0D0E9013254
:1018100001699A60D0E901235A604A68824201D185
:1018200082684A60002202610868401E08600868F9
:1018300070470000034B036003F1540008608020F0
:1018400010607047CC000020044B036003F154008B
:1018500008604FF480701060704700002003002083
:101860004FF4FA6529460120FFF79CFF040005D0DC
:1018700004A0FFF7F7FA641EFAD1F3E70AA0FFF716
:10188000F1FAEFE748616E646C6572207461736B06
:10189000202D2050726F63657373696E67206576C3
:1018A000656E742E0D0A00006572722E0D0A00001E
:1018B00000F108014FF0FF32C0E90112C16001617F
:1018C00000210160704700210161704730B50B684D
:1018D0005A1C02D000F1080202E0026904E022462C
:1018E000546825689D42FAD953684B6099608A60B4
:1018F000516008610168491C016030BD42684A605E
:1019000093688B6093685960916008610168491C15
:1019100001607047502080F31188BFF34F8FBFF3F1
:101920006F8F0A494868401C486001280CD108485C
:10193000006810F0FF0F07D0502080F31188BFF32C
:101940004F8FBFF36F8FFEE7704700007C000020D1
:1019500004ED00E00849486828B1401E486001D104
:1019600080F311887047502080F31188BFF34F8FA8
:10197000BFF36F8FFEE700007C00002070B50028E9
:1019800027D0144DA0F108046168E868014207D12E
:10199000502080F31188BFF34F8FBFF36F8FFEE7A6
:1019A00022683AB1502080F31188BFF34F8FBFF304
:1019B0006F8FFEE78143616000F062F960686968DB
:1019C000084468602046FFF7A9FCBDE8704000F0BD
:1019D00093BD70BD640000204FF0E0200021016144
:1019E000816105494FF47A720968B1FBF2F1491E31
:1019F00041610721016170471000002010B5FEF71A
:101A0000C7FB114910280ED300F1E02090F8F00335
:101A10000A78904207D2502080F31188BFF34F8F8D
:101A2000BFF36F8FFEE709480068896800F4E06043
:101A3000884207D9502080F31188BFF34F8FBFF33E
:101A40006F8FFEE710BD00007C0000200CED00E071
:101A500010B5084B002200BF53F832401CB1521C95
:101A6000082AF9D310BD43F8321003EBC2014860D5
:101A700010BD0000B407002070B515460E460446A0
:101A8000FFF748FF94F944100020491C01D184F865
:101A9000440094F94510491C01D184F84500FFF732
:101AA00059FFA06B28B92A46314604F1240000F002
:101AB00087F82046BDE87040FFF7C0BD02498A6A3A
:101AC000026049694160704714000020014901200B
:101AD00048627047140000202DE9F0418846040058
:101AE00015D0FFF78BFF5020EFF3118680F311889C
:101AF000BFF34F8FBFF36F8F94F85000022184F82B
:101B00005010E16C491CE164012808D037E05020F6
:101B100080F31188BFF34F8FBFF36F8FFEE7A06A8A
:101B200038B1502080F31188BFF34F8FBFF36F8F10
:101B3000FEE7154DA86B012778B104F11801134891
:101B4000FFF7DCFEE06A2968C96A884217D9B8F154
:101B5000000F13D0C8F8007011E0201DFFF756FEEB
:101B6000E16AAA6907FA01F01043A86101EB81005C
:101B70000649B43901EB8000211DE1E76F6286F36D
:101B80001188BDE8F081000014000020A8080020A2
:101B900010B50C4650B1094909681831FFF796FE97
:101BA0002046BDE810400121FFF7E0B9502080F346
:101BB0001188BFF34F8FBFF36F8FFEE71400002033
:101BC00070B514460D4668B10A4909681831FFF727
:101BD00095FE0CB14FF0FF3521462846BDE8704018
:101BE000FFF7C4B9502080F31188BFF34F8FBFF3C4
:101BF0006F8FFEE71400002030B587B000240394F7
:101C000005AA04A903A80494FFF714FEDDE9030163
:101C10000094CDE90110002315A11748059A00F0A2
:101C200042FB164D002868631FD000F0C7FC012856
:101C300009D0401C19D1502080F31188BFF34F8F79
:101C4000BFF36F8FFEE7502080F31188BFF34F8FF3
:101C5000BFF36F8F4FF0FF3028630120E8616C61A4
:101C600007B0BDE8304000F041B807B030BD00001B
:101C700049444C45000000001912000814000020DF
:101C80000248816B491C81637047000014000020EA
:101C90001448816B11B101214162704700214162FA
:101CA0008169B1FA81F1C1F11F0101EB81020E4995
:101CB00051F822306BB101EB820101F108034A684F
:101CC00052684A609A4201D152684A60D168016004
:101CD0007047502080F31188BFF34F8FBFF36F8F91
:101CE000FEE7000014000020F40700201CB5264980
:101CF00008780190FF20087008788DF800009DF8A2
:101D000000009DF8002000F0F000904207D0502025
:101D100080F31188BFF34F8FBFF36F8FFEE79DF8FD
:101D200000001A4B00F0500018700720986005E082
:101D30009DF8002052008DF80020401E9DF80020E4
:101D40001206F5D49860032807D0502080F311883C
:101D5000BFF34F8FBFF36F8FFEE74FF44070986073
:101D6000019808700A48016841F470010160016837
:101D700041F070410160FFF72FFE00205860FEF730
:101D8000D1F900201CBD000000E400E07C00002030
:101D900020ED00E038B5049D18B153B1CAB181B14E
:101DA00020E0502080F31188BFF34F8FBFF36F8F77
:101DB000FEE7502080F31188BFF34F8FBFF36F8F82
:101DC000FEE7502080F31188BFF34F8FBFF36F8F72
:101DD000FEE739B1502080F31188BFF34F8FBFF376
:101DE0006F8FFEE748241C46012384F846302B46BB
:101DF0000094FFF741FA204638BD000070B50D464B
:101E0000040025D0FFF786FDD4E90F20216802FBEE
:101E1000001161600021A1632168A1600A46D4E934
:101E20000F01401E00FB0121E16021464FF0FF3011
:101E300001F8440F487004F110008DB1FFF738FD30
:101E400004F12400FFF734FDFFF784FD012070BD8D
:101E5000502080F31188BFF34F8FBFF36F8FFEE7E1
:101E600021690029F0D000F00DFB0028ECD00449D6
:101E70004FF080500860BFF34F8FBFF36F8FE3E7E1
:101E800004ED00E02DE9FF4782B01D468A464FF081
:101E90000008040003D0BAF1000F08D011E0502070
:101EA00080F31188BFF34F8FBFF36F8FFEE7206C75
:101EB00038B1502080F31188BFF34F8FBFF36F8F7D
:101EC000FEE7022D0AD1E06B012807D0502080F3F5
:101ED0001188BFF34F8FBFF36F8FFEE700F00EFA4C
:101EE0003F4F4FF000094FF0805648B9049838B181
:101EF000502080F31188BFF34F8FBFF36F8FFEE741
:101F0000FFF708FDA06BE16B884207D3022D05D0D7
:101F10000498D0B1B8F1000F1AD01EE02A465146FD
:101F20002046FFF702F9616A19B104F1240000F0BC
:101F3000A9FA20B13E60BFF34F8FBFF36F8FFFF759
:101F400009FD012006B0BDE8F087FFF703FD22E0A0
:101F50006846FFF7B3FD4FF00108FFF7FBFCFFF702
:101F60008FFEFFF7D7FC94F94400401C01D184F8A0
:101F7000449094F94500401C01D184F84590FFF746
:101F8000E9FC04A9684600F027F930B12046FFF7C4
:101F900055FB00F0B1FA0020D4E7FFF7BBFCA06BC3
:101FA000E16B884213D1FFF7D5FC04F110000499CE
:101FB000FFF7EEFD2046FFF741FB00F09DFA0028F9
:101FC0009ED13E60BFF34F8FBFF36F8F98E7FFF74F
:101FD000C1FC2046FFF732FB00F08EFA90E70000CC
:101FE00004ED00E02DE9F0471F46904689460400C5
:101FF00003D0B9F1000F08D011E0502080F3118810
:10200000BFF34F8FBFF36F8FFEE7206C38B15020C6
:1020100080F31188BFF34F8FBFF36F8FFEE7022F5E
:102020000AD1E06B012807D0502080F31188BFF35C
:102030004F8FBFF36F8FFEE7FFF7E0FC5020EFF309
:10204000118680F31188BFF34F8FBFF36F8FA06BA2
:10205000E16B884206D3022F04D0002086F311885A
:10206000BDE8F08794F945503A4649462046FFF7C7
:102070005CF8681C04D06D1C84F845500120EDE725
:10208000606A0028FAD004F1240000F0FBF900286F
:10209000F4D0B8F1000FF1D00121C8F80010EDE73D
:1020A0002DE9F747002683B08A46040003D0BAF131
:1020B000000F08D011E0502080F31188BFF34F8F3C
:1020C000BFF36F8FFEE7206C38B1502080F311888A
:1020D000BFF34F8FBFF36F8FFEE700F00FF9DFF80C
:1020E000F4804FF000094FF0805748B9059838B197
:1020F000502080F31188BFF34F8FBFF36F8FFEE73F
:10210000FFF708FCA56BC5B151462046FEF7FAFF64
:102110006D1EA563206950B104F1100000F0B2F902
:1021200028B1C8F80070BFF34F8FBFF36F8FFFF770
:1021300011FC012006B0BDE8F087059808B11EB17A
:1021400006E0FFF707FC27E06846FFF7B7FC01262B
:10215000FFF700FCFFF794FDFFF7DCFB94F9440068
:10216000401C01D184F8449094F94500401C01D1F1
:1021700084F84590FFF7EEFB05A9684600F02CF8BF
:10218000002820460AD0FFF759FA00F0B5F920469A
:10219000FFF706F90028B3D00020CBE7FFF700F9DE
:1021A00090B104F124000599FFF7F2FC2046FFF7F7
:1021B00045FA00F0A1F90028A2D1C8F80070BFF3D9
:1021C0004F8FBFF36F8F9BE72046FFF737FA00F082
:1021D00093F995E704ED00E02DE9F0410C46050088
:1021E00011D0C4B1FFF796FB174B5A696E6820688F
:1021F000911B471C17D02F689B6A9F4219D09642AB
:1022000017D8012410E0502080F31188BFF34F8FBE
:10221000BFF36F8FFEE7502080F31188BFF34F8F1D
:10222000BFF36F8FFEE70024FFF794FB2046BDE865
:10223000F081884205D9401A20602846FFF73EFC0D
:10224000F1E700202060DCE7140000202DE9FF5FAB
:102250008346DDE90E87994616468A469000FFF7C9
:1022600023FA05001CD05420FFF71EFA040014D0F6
:102270000020256384F85100CDE90240CDE90087B4
:102280004B46324651465846FFF701F82046FEF7C6
:10229000A5FE012004B0BDE8F09F2846FFF76EFBC5
:1022A0004FF0FF30F6E7F0B585B0DDE90B640A9D2D
:1022B000A6B1DCB1542700972663022684F851604A
:1022C000002604AFCDE90246CDE90057FEF7DFFF57
:1022D0002046FEF783FE049805B0F0BD502080F341
:1022E0001188BFF34F8FBFF36F8FFEE7502080F34D
:1022F0001188BFF34F8FBFF36F8FFEE70548C169A9
:1023000019B1806B18B1002070470120704702207E
:102310007047000014000020014840697047000029
:10232000140000202DE9F0412E4C0027A06B40B195
:10233000206A401C2062606A00B101273846BDE86F
:10234000F0816669761C666113D16068006838B1F7
:10235000502080F31188BFF34F8FBFF36F8FFEE7DC
:102360006068A1686160A060A06A401CA062FFF77D
:10237000E5F8206BDFF87080864209D3606800685A
:1023800080B16068C068C568686886420DD2206305
:102390002068C06A00EB800158F821000128CAD9E2
:1023A0000127C8E74FF0FF30F1E7281DFFF72EFAAD
:1023B000A86A18B105F11800FFF728FAE86A0121A8
:1023C000A26981401143A16100EB800108EB81000B
:1023D000291DFFF793FAE86A2168C96A8842CDD3BC
:1023E0000127CBE714000020F407002070B504009B
:1023F0004FF0000140D0214D2868844207D0502082
:1024000080F31188BFF34F8FBFF36F8FFEE7A06C8F
:1024100038B1401EA064636CE26A9A422CD040B18D
:102420002AE0502080F31188BFF34F8FBFF36F8FE6
:10243000FEE7201DFFF7EAF9114A012150B9E06AD1
:1024400000EB800352F8233023B9AB6901FA00F0A6
:102450008343AB61606CE062C0F10700A061E06A99
:10246000AB6981401943A96100EB800002EB800059
:10247000211DFFF743FA0121084670BD140000201A
:10248000F40700202DE9F041C068C468ACB104F144
:1024900018000746FFF7BAF9154DA86B0126A0B141
:1024A00039461448FFF72AFAE06A2968C96A88425F
:1024B0001CD901206E62BDE8F081502080F31188A4
:1024C000BFF34F8FBFF36F8FFEE7201DFFF79EF91D
:1024D000E16AAA6906FA01F01043A86101EB8100E4
:1024E0000449B43901EB8000211DDBE70020E2E75D
:1024F00014000020A80800202DE9F0472C4D0024EE
:102500002746A86B38B1FFF705FAA86B401EA863F1
:10251000A86B40B146E0502080F31188BFF34F8F85
:10252000BFF36F8FFEE72969224E0120D1B3A6F1D8
:10253000B40980463068E8B1F068C46804F1180056
:10254000FFF764F9201DFFF761F9E06AAA6908FA4C
:1025500000F11143A96100EB800109EB8100211D0D
:10256000FFF7CCF9E06A2968C96A8842E2D3C5F866
:102570002480DFE70CB1FEF7E1FF2C6A44B1464648
:10258000FFF7D0FE00B16E62641EF9D10020286210
:10259000686A38B10849012738070860BFF34F8FD0
:1025A000BFF36F8FFFF7D6F93846BDE8F08700001C
:1025B00014000020A808002004ED00E010B586B04B
:1025C000FEF774FD114CA068B8B100200390049090
:1025D00005AA04A903A8FFF737F9DDE903210220C2
:1025E0008DE8070000230AA10B48059AFFF75BFE60
:1025F000E06010B106B0012010BD502080F31188BA
:10260000BFF34F8FBFF36F8FFEE700005000002035
:10261000546D722053766300191600082DE9FF41AE
:102620001E46134602000A9D4FF0000016D0144CBF
:10263000A768002F0FD0CDE900130292062917DA00
:10264000FFF75CFE02284FF000030FD0002269461E
:10265000A068FFF717FC04B0BDE8F081502080F3BC
:102660001188BFF34F8FBFF36F8FFEE72A46EEE767
:102670000023324669463846FFF7B4FCEBE700001A
:1026800050000020000000000000000001020304D0
:10269000060708090000000001020304BC26000828
:1026A000000000208C000000940E0008482700085D
:1026B0008C0000206C190000A40E0008000000002F
:1026C0000100000010000000000000000024F400E1
:1026D00000000000000000000000000000000000FA
:1026E00000000000000000000000000000000000EA
:1026F00000000000000000000000000000000000DA
:1027000000000000000000000000000000000000C9
:1027100000000000000000000000000000000000B9
:1027200000000000000000000000000000000000A9
:10273000000000000000000000000000AAAAAAAAF1
:08274000000000000000000091
:04000005080000ED02
:00000001FF
